{
  "contractName": "Coin",
  "abi": [
    {
      "inputs": [],
      "stateMutability": "nonpayable",
      "type": "constructor"
    },
    {
      "anonymous": false,
      "inputs": [
        {
          "indexed": false,
          "internalType": "bool",
          "name": "trueOrFalse",
          "type": "bool"
        },
        {
          "indexed": false,
          "internalType": "string",
          "name": "result",
          "type": "string"
        }
      ],
      "name": "betResult",
      "type": "event"
    },
    {
      "anonymous": false,
      "inputs": [
        {
          "indexed": false,
          "internalType": "string",
          "name": "description",
          "type": "string"
        },
        {
          "indexed": false,
          "internalType": "bool",
          "name": "trueOrFalse",
          "type": "bool"
        }
      ],
      "name": "logNewProvableQuery",
      "type": "event"
    },
    {
      "inputs": [],
      "name": "ownerBalance",
      "outputs": [
        {
          "internalType": "uint256",
          "name": "",
          "type": "uint256"
        }
      ],
      "stateMutability": "view",
      "type": "function",
      "constant": true
    },
    {
      "inputs": [
        {
          "internalType": "bytes32",
          "name": "",
          "type": "bytes32"
        }
      ],
      "name": "queries",
      "outputs": [
        {
          "internalType": "address payable",
          "name": "userAddress",
          "type": "address"
        },
        {
          "internalType": "uint256",
          "name": "headsOrTails",
          "type": "uint256"
        },
        {
          "internalType": "bytes32",
          "name": "queryId",
          "type": "bytes32"
        }
      ],
      "stateMutability": "view",
      "type": "function",
      "constant": true
    },
    {
      "inputs": [
        {
          "internalType": "address",
          "name": "",
          "type": "address"
        }
      ],
      "name": "users",
      "outputs": [
        {
          "internalType": "uint256",
          "name": "balance",
          "type": "uint256"
        },
        {
          "internalType": "bytes32",
          "name": "queryId",
          "type": "bytes32"
        }
      ],
      "stateMutability": "view",
      "type": "function",
      "constant": true
    },
    {
      "inputs": [
        {
          "internalType": "bytes32",
          "name": "_queryId",
          "type": "bytes32"
        },
        {
          "internalType": "string",
          "name": "_result",
          "type": "string"
        }
      ],
      "name": "__callback",
      "outputs": [],
      "stateMutability": "nonpayable",
      "type": "function"
    },
    {
      "inputs": [
        {
          "internalType": "bytes32",
          "name": "_myid",
          "type": "bytes32"
        },
        {
          "internalType": "string",
          "name": "_result",
          "type": "string"
        },
        {
          "internalType": "bytes",
          "name": "_proof",
          "type": "bytes"
        }
      ],
      "name": "__callback",
      "outputs": [],
      "stateMutability": "nonpayable",
      "type": "function"
    },
    {
      "inputs": [
        {
          "internalType": "uint256",
          "name": "coinSide",
          "type": "uint256"
        }
      ],
      "name": "randomNumGenerator",
      "outputs": [],
      "stateMutability": "payable",
      "type": "function",
      "payable": true
    },
    {
      "inputs": [],
      "name": "setOwnerBalance",
      "outputs": [],
      "stateMutability": "payable",
      "type": "function",
      "payable": true
    },
    {
      "inputs": [
        {
          "internalType": "uint256",
          "name": "headsOrTails",
          "type": "uint256"
        }
      ],
      "name": "startBet",
      "outputs": [],
      "stateMutability": "payable",
      "type": "function",
      "payable": true
    }
  ],
  "bytecode": "0x608060405234801561001057600080fd5b5033600660006101000a81548173ffffffffffffffffffffffffffffffffffffffff021916908373ffffffffffffffffffffffffffffffffffffffff160217905550612e92806100616000396000f3fe60806040526004361061007b5760003560e01c8063bedcf0031161004e578063bedcf003146103b0578063d20e54a8146103db578063efafd28f14610409578063f9aa56e4146104135761007b565b806321dfb6001461008057806327dc297e1461010957806338bbfa50146101db578063a87430ba14610344575b600080fd5b34801561008c57600080fd5b506100b9600480360360208110156100a357600080fd5b8101908080359060200190929190505050610441565b604051808473ffffffffffffffffffffffffffffffffffffffff1673ffffffffffffffffffffffffffffffffffffffff168152602001838152602001828152602001935050505060405180910390f35b34801561011557600080fd5b506101d96004803603604081101561012c57600080fd5b81019080803590602001909291908035906020019064010000000081111561015357600080fd5b82018360208201111561016557600080fd5b8035906020019184600183028401116401000000008311171561018757600080fd5b91908080601f016020809104026020016040519081016040528093929190818152602001838380828437600081840152601f19601f82011690508083019250505050505050919291929050505061048b565b005b3480156101e757600080fd5b50610342600480360360608110156101fe57600080fd5b81019080803590602001909291908035906020019064010000000081111561022557600080fd5b82018360208201111561023757600080fd5b8035906020019184600183028401116401000000008311171561025957600080fd5b91908080601f016020809104026020016040519081016040528093929190818152602001838380828437600081840152601f19601f820116905080830192505050505050509192919290803590602001906401000000008111156102bc57600080fd5b8201836020820111156102ce57600080fd5b803590602001918460018302840111640100000000831117156102f057600080fd5b91908080601f016020809104026020016040519081016040528093929190818152602001838380828437600081840152601f19601f820116905080830192505050505050509192919290505050610698565b005b34801561035057600080fd5b506103936004803603602081101561036757600080fd5b81019080803573ffffffffffffffffffffffffffffffffffffffff1690602001909291905050506106bb565b604051808381526020018281526020019250505060405180910390f35b3480156103bc57600080fd5b506103c56106df565b6040518082815260200191505060405180910390f35b610407600480360360208110156103f157600080fd5b81019080803590602001909291905050506106e5565b005b61041161085e565b005b61043f6004803603602081101561042957600080fd5b8101908080359060200190929190505050610933565b005b60086020528060005260406000206000915090508060000160009054906101000a900473ffffffffffffffffffffffffffffffffffffffff16908060010154908060020154905083565b610493610a9d565b73ffffffffffffffffffffffffffffffffffffffff163373ffffffffffffffffffffffffffffffffffffffff16146104ca57600080fd5b600060016002836040516020018082805190602001908083835b6020831061050757805182526020820191506020810190506020830392506104e4565b6001836020036101000a0380198251168184511680821785525050505050509050019150506040516020818303038152906040528051906020012060001c8161054c57fe5b0601905082600860008581526020019081526020016000206002015414801561058a5750600860008481526020019081526020016000206001015481145b156106135761059883610dbc565b507fd174b8ad3bed71b35de6016396bb6f58eb645015aa1aa574b9bff3cadcf0440e6001604051808215151515815260200180602001828103825260088152602001807f596f752077696e210000000000000000000000000000000000000000000000008152506020019250505060405180910390a1610693565b61061c8361103c565b507fd174b8ad3bed71b35de6016396bb6f58eb645015aa1aa574b9bff3cadcf0440e6000604051808215151515815260200180602001828103825260098152602001807f596f75206c6f73652100000000000000000000000000000000000000000000008152506020019250505060405180910390a15b505050565b6000801b600360008060001b815260200190815260200160002081905550505050565b60076020528060005260406000206000915090508060000154908060010154905082565b60055481565b67016345785d8a0000341015610746576040517f08c379a0000000000000000000000000000000000000000000000000000000008152600401808060200182810382526027815260200180612dc86027913960400191505060405180910390fd5b670de0b6b3a76400003411156107a7576040517f08c379a0000000000000000000000000000000000000000000000000000000008152600401808060200182810382526025815260200180612def6025913960400191505060405180910390fd5b600554341115610802576040517f08c379a0000000000000000000000000000000000000000000000000000000008152600401808060200182810382526049815260200180612e146049913960600191505060405180910390fd5b34600760003373ffffffffffffffffffffffffffffffffffffffff1673ffffffffffffffffffffffffffffffffffffffff1681526020019081526020016000206000016000828254019250508190555061085b81610933565b50565b600660009054906101000a900473ffffffffffffffffffffffffffffffffffffffff1673ffffffffffffffffffffffffffffffffffffffff163373ffffffffffffffffffffffffffffffffffffffff1614610921576040517f08c379a00000000000000000000000000000000000000000000000000000000081526004018080602001828103825260158152602001807f596f7520617265206e6f7420746865206f776e6572000000000000000000000081525060200191505060405180910390fd5b34600560008282540192505081905550565b6000809050600062030d409050600061094e83600184611149565b9050336008600083815260200190815260200160002060000160006101000a81548173ffffffffffffffffffffffffffffffffffffffff021916908373ffffffffffffffffffffffffffffffffffffffff16021790555080600860008381526020019081526020016000206002018190555083600860008381526020019081526020016000206001018190555080600760003373ffffffffffffffffffffffffffffffffffffffff1673ffffffffffffffffffffffffffffffffffffffff168152602001908152602001600020600101819055507f816d386a96cdddc6f4a759dee7b3ef87caab590cbe3514c79b3fec73dd174bf060016040518080602001831515151581526020018281038252601b8152602001807f42657420706c616365642c206177616974696e6720726573756c7400000000008152506020019250505060405180910390a150505050565b60008073ffffffffffffffffffffffffffffffffffffffff16600160009054906101000a900473ffffffffffffffffffffffffffffffffffffffff1673ffffffffffffffffffffffffffffffffffffffff161480610b2557506000610b23600160009054906101000a900473ffffffffffffffffffffffffffffffffffffffff166116e4565b145b15610b3657610b3460006116ef565b505b600160009054906101000a900473ffffffffffffffffffffffffffffffffffffffff1673ffffffffffffffffffffffffffffffffffffffff166338cc48316040518163ffffffff1660e01b8152600401602060405180830381600087803b158015610ba057600080fd5b505af1158015610bb4573d6000803e3d6000fd5b505050506040513d6020811015610bca57600080fd5b810190808051906020019092919050505073ffffffffffffffffffffffffffffffffffffffff166000809054906101000a900473ffffffffffffffffffffffffffffffffffffffff1673ffffffffffffffffffffffffffffffffffffffff1614610d1357600160009054906101000a900473ffffffffffffffffffffffffffffffffffffffff1673ffffffffffffffffffffffffffffffffffffffff166338cc48316040518163ffffffff1660e01b8152600401602060405180830381600087803b158015610c9857600080fd5b505af1158015610cac573d6000803e3d6000fd5b505050506040513d6020811015610cc257600080fd5b81019080805190602001909291905050506000806101000a81548173ffffffffffffffffffffffffffffffffffffffff021916908373ffffffffffffffffffffffffffffffffffffffff1602179055505b6000809054906101000a900473ffffffffffffffffffffffffffffffffffffffff1673ffffffffffffffffffffffffffffffffffffffff1663c281d19e6040518163ffffffff1660e01b8152600401602060405180830381600087803b158015610d7c57600080fd5b505af1158015610d90573d6000803e3d6000fd5b505050506040513d6020811015610da657600080fd5b8101908080519060200190929190505050905090565b6000806002600760006008600087815260200190815260200160002060000160009054906101000a900473ffffffffffffffffffffffffffffffffffffffff1673ffffffffffffffffffffffffffffffffffffffff1673ffffffffffffffffffffffffffffffffffffffff16815260200190815260200160002060000154029050600760006008600086815260200190815260200160002060000160009054906101000a900473ffffffffffffffffffffffffffffffffffffffff1673ffffffffffffffffffffffffffffffffffffffff1673ffffffffffffffffffffffffffffffffffffffff16815260200190815260200160002060000154600554036005819055506000600760006008600087815260200190815260200160002060000160009054906101000a900473ffffffffffffffffffffffffffffffffffffffff1673ffffffffffffffffffffffffffffffffffffffff1673ffffffffffffffffffffffffffffffffffffffff168152602001908152602001600020600001819055506008600084815260200190815260200160002060000160009054906101000a900473ffffffffffffffffffffffffffffffffffffffff1673ffffffffffffffffffffffffffffffffffffffff166108fc829081150290604051600060405180830381858888f19350505050158015610fba573d6000803e3d6000fd5b50600760006008600086815260200190815260200160002060000160009054906101000a900473ffffffffffffffffffffffffffffffffffffffff1673ffffffffffffffffffffffffffffffffffffffff1673ffffffffffffffffffffffffffffffffffffffff16815260200190815260200160002060000154915050919050565b6000600760006008600085815260200190815260200160002060000160009054906101000a900473ffffffffffffffffffffffffffffffffffffffff1673ffffffffffffffffffffffffffffffffffffffff1673ffffffffffffffffffffffffffffffffffffffff16815260200190815260200160002060000154600554016005819055506000600760006008600086815260200190815260200160002060000160009054906101000a900473ffffffffffffffffffffffffffffffffffffffff1673ffffffffffffffffffffffffffffffffffffffff1673ffffffffffffffffffffffffffffffffffffffff168152602001908152602001600020600001819055506005549050919050565b6000808311801561115b575060208311155b61116457600080fd5b600a84029350606060016040519080825280601f01601f1916602001820160405280156111a05781602001600182028038833980820191505090505b5090508360f81b816000815181106111b457fe5b60200101907effffffffffffffffffffffffffffffffffffffffffffffffffffffffffffff1916908160001a905350606060206040519080825280601f01601f1916602001820160405280156112195781602001600182028038833980820191505090505b509050606060206040519080825280601f01601f1916602001820160405280156112525781602001600182028038833980820191505090505b509050600061125f611700565b905060208352424118600143034018602084015260208252806020830152606060206040519080825280601f01601f1916602001820160405280156112b35781602001600182028038833980820191505090505b509050886020820152606060086040519080825280601f01601f1916602001820160405280156112f25781602001600182028038833980820191505090505b5090506113058260186008846000611a1d565b5061130e612ce1565b604051806080016040528087815260200188815260200186815260200184815250905060006113736040518060400160405280600681526020017f72616e646f6d0000000000000000000000000000000000000000000000000000815250838c611a7c565b9050606060086040519080825280601f01601f1916602001820160405280156113ab5781602001600182028038833980820191505090505b50905060208401517f0100000000000000000000000000000000000000000000000000000000000000810460278301537e01000000000000000000000000000000000000000000000000000000000000810460268301537d010000000000000000000000000000000000000000000000000000000000810460258301537c0100000000000000000000000000000000000000000000000000000000810460248301537b01000000000000000000000000000000000000000000000000000000810460238301537a0100000000000000000000000000000000000000000000000000008104602283015379010000000000000000000000000000000000000000000000000081046021830153780100000000000000000000000000000000000000000000000081046020830153506116d18282856001600481106114ea57fe5b60200201516002876000600481106114fe57fe5b60200201516040518082805190602001908083835b602083106115365780518252602082019150602081019050602083039250611513565b6001836020036101000a038019825116818451168082178552505050505050905001915050602060405180830381855afa158015611578573d6000803e3d6000fd5b5050506040513d602081101561158d57600080fd5b8101908080519060200190929190505050876002600481106115ab57fe5b60200201516040516020018085805190602001908083835b602083106115e657805182526020820191506020810190506020830392506115c3565b6001836020036101000a03801982511681845116808217855250505050505090500184805190602001908083835b602083106116375780518252602082019150602081019050602083039250611614565b6001836020036101000a03801982511681845116808217855250505050505090500183815260200182805190602001908083835b6020831061168e578051825260208201915060208101905060208303925061166b565b6001836020036101000a03801982511681845116808217855250505050505090500194505050505060405160208183030381529060405280519060200120611de9565b8199505050505050505050509392505050565b6000813b9050919050565b60006116f9611e05565b9050919050565b60008073ffffffffffffffffffffffffffffffffffffffff16600160009054906101000a900473ffffffffffffffffffffffffffffffffffffffff1673ffffffffffffffffffffffffffffffffffffffff16148061178857506000611786600160009054906101000a900473ffffffffffffffffffffffffffffffffffffffff166116e4565b145b156117995761179760006116ef565b505b600160009054906101000a900473ffffffffffffffffffffffffffffffffffffffff1673ffffffffffffffffffffffffffffffffffffffff166338cc48316040518163ffffffff1660e01b8152600401602060405180830381600087803b15801561180357600080fd5b505af1158015611817573d6000803e3d6000fd5b505050506040513d602081101561182d57600080fd5b810190808051906020019092919050505073ffffffffffffffffffffffffffffffffffffffff166000809054906101000a900473ffffffffffffffffffffffffffffffffffffffff1673ffffffffffffffffffffffffffffffffffffffff161461197657600160009054906101000a900473ffffffffffffffffffffffffffffffffffffffff1673ffffffffffffffffffffffffffffffffffffffff166338cc48316040518163ffffffff1660e01b8152600401602060405180830381600087803b1580156118fb57600080fd5b505af115801561190f573d6000803e3d6000fd5b505050506040513d602081101561192557600080fd5b81019080805190602001909291905050506000806101000a81548173ffffffffffffffffffffffffffffffffffffffff021916908373ffffffffffffffffffffffffffffffffffffffff1602179055505b6000809054906101000a900473ffffffffffffffffffffffffffffffffffffffff1673ffffffffffffffffffffffffffffffffffffffff1663abaa5f3e6040518163ffffffff1660e01b815260040160206040518083038186803b1580156119dd57600080fd5b505afa1580156119f1573d6000803e3d6000fd5b505050506040513d6020811015611a0757600080fd5b8101908080519060200190929190505050905090565b6060600082850190508084511015611a3457600080fd5b600086602001905060008460200190505b868860200101821015611a6d5781890151808288015250602082019150602081019050611a45565b85935050505095945050505050565b60008073ffffffffffffffffffffffffffffffffffffffff16600160009054906101000a900473ffffffffffffffffffffffffffffffffffffffff1673ffffffffffffffffffffffffffffffffffffffff161480611b0457506000611b02600160009054906101000a900473ffffffffffffffffffffffffffffffffffffffff166116e4565b145b15611b1557611b1360006116ef565b505b600160009054906101000a900473ffffffffffffffffffffffffffffffffffffffff1673ffffffffffffffffffffffffffffffffffffffff166338cc48316040518163ffffffff1660e01b8152600401602060405180830381600087803b158015611b7f57600080fd5b505af1158015611b93573d6000803e3d6000fd5b505050506040513d6020811015611ba957600080fd5b810190808051906020019092919050505073ffffffffffffffffffffffffffffffffffffffff166000809054906101000a900473ffffffffffffffffffffffffffffffffffffffff1673ffffffffffffffffffffffffffffffffffffffff1614611cf257600160009054906101000a900473ffffffffffffffffffffffffffffffffffffffff1673ffffffffffffffffffffffffffffffffffffffff166338cc48316040518163ffffffff1660e01b8152600401602060405180830381600087803b158015611c7757600080fd5b505af1158015611c8b573d6000803e3d6000fd5b505050506040513d6020811015611ca157600080fd5b81019080805190602001909291905050506000806101000a81548173ffffffffffffffffffffffffffffffffffffffff021916908373ffffffffffffffffffffffffffffffffffffffff1602179055505b60606004604051908082528060200260200182016040528015611d2957816020015b6060815260200190600190039081611d145790505b50905083600060048110611d3957fe5b602002015181600081518110611d4b57fe5b602002602001018190525083600160048110611d6357fe5b602002015181600181518110611d7557fe5b602002602001018190525083600260048110611d8d57fe5b602002015181600281518110611d9f57fe5b602002602001018190525083600360048110611db757fe5b602002015181600381518110611dc957fe5b6020026020010181905250611ddf85828561235c565b9150509392505050565b8060036000848152602001908152602001600020819055505050565b600080611e25731d3b2638a7cc9f2cb3d298a3da7a90b67e5506ed6116e4565b1115611ec757731d3b2638a7cc9f2cb3d298a3da7a90b67e5506ed600160006101000a81548173ffffffffffffffffffffffffffffffffffffffff021916908373ffffffffffffffffffffffffffffffffffffffff160217905550611ebe6040518060400160405280600b81526020017f6574685f6d61696e6e65740000000000000000000000000000000000000000008152506128be565b60019050612359565b6000611ee673c03a2615d5efaf5f49f60b7bb6583eaec212fdf16116e4565b1115611f885773c03a2615d5efaf5f49f60b7bb6583eaec212fdf1600160006101000a81548173ffffffffffffffffffffffffffffffffffffffff021916908373ffffffffffffffffffffffffffffffffffffffff160217905550611f7f6040518060400160405280600c81526020017f6574685f726f707374656e3300000000000000000000000000000000000000008152506128be565b60019050612359565b6000611fa773b7a07bcf2ba2f2703b24c0691b5278999c59ac7e6116e4565b11156120495773b7a07bcf2ba2f2703b24c0691b5278999c59ac7e600160006101000a81548173ffffffffffffffffffffffffffffffffffffffff021916908373ffffffffffffffffffffffffffffffffffffffff1602179055506120406040518060400160405280600981526020017f6574685f6b6f76616e00000000000000000000000000000000000000000000008152506128be565b60019050612359565b600061206873146500cfd35b22e4a392fe0adc06de1a1368ed486116e4565b111561210a5773146500cfd35b22e4a392fe0adc06de1a1368ed48600160006101000a81548173ffffffffffffffffffffffffffffffffffffffff021916908373ffffffffffffffffffffffffffffffffffffffff1602179055506121016040518060400160405280600b81526020017f6574685f72696e6b6562790000000000000000000000000000000000000000008152506128be565b60019050612359565b600061212973a2998efd205fb9d4b4963afb70778d6354ad3a416116e4565b11156121cb5773a2998efd205fb9d4b4963afb70778d6354ad3a41600160006101000a81548173ffffffffffffffffffffffffffffffffffffffff021916908373ffffffffffffffffffffffffffffffffffffffff1602179055506121c26040518060400160405280600a81526020017f6574685f676f65726c69000000000000000000000000000000000000000000008152506128be565b60019050612359565b60006121ea736f485c8bf6fc43ea212e93bbf8ce046c7f1cb4756116e4565b111561224e57736f485c8bf6fc43ea212e93bbf8ce046c7f1cb475600160006101000a81548173ffffffffffffffffffffffffffffffffffffffff021916908373ffffffffffffffffffffffffffffffffffffffff16021790555060019050612359565b600061226d7320e12a1f859b3feae5fb2a0a32c18f5a65555bbf6116e4565b11156122d1577320e12a1f859b3feae5fb2a0a32c18f5a65555bbf600160006101000a81548173ffffffffffffffffffffffffffffffffffffffff021916908373ffffffffffffffffffffffffffffffffffffffff16021790555060019050612359565b60006122f07351efaf4c8b3c9afbd5ab9f4bbc82784ab6ef8faa6116e4565b1115612354577351efaf4c8b3c9afbd5ab9f4bbc82784ab6ef8faa600160006101000a81548173ffffffffffffffffffffffffffffffffffffffff021916908373ffffffffffffffffffffffffffffffffffffffff16021790555060019050612359565b600090505b90565b60008073ffffffffffffffffffffffffffffffffffffffff16600160009054906101000a900473ffffffffffffffffffffffffffffffffffffffff1673ffffffffffffffffffffffffffffffffffffffff1614806123e4575060006123e2600160009054906101000a900473ffffffffffffffffffffffffffffffffffffffff166116e4565b145b156123f5576123f360006116ef565b505b600160009054906101000a900473ffffffffffffffffffffffffffffffffffffffff1673ffffffffffffffffffffffffffffffffffffffff166338cc48316040518163ffffffff1660e01b8152600401602060405180830381600087803b15801561245f57600080fd5b505af1158015612473573d6000803e3d6000fd5b505050506040513d602081101561248957600080fd5b810190808051906020019092919050505073ffffffffffffffffffffffffffffffffffffffff166000809054906101000a900473ffffffffffffffffffffffffffffffffffffffff1673ffffffffffffffffffffffffffffffffffffffff16146125d257600160009054906101000a900473ffffffffffffffffffffffffffffffffffffffff1673ffffffffffffffffffffffffffffffffffffffff166338cc48316040518163ffffffff1660e01b8152600401602060405180830381600087803b15801561255757600080fd5b505af115801561256b573d6000803e3d6000fd5b505050506040513d602081101561258157600080fd5b81019080805190602001909291905050506000806101000a81548173ffffffffffffffffffffffffffffffffffffffff021916908373ffffffffffffffffffffffffffffffffffffffff1602179055505b60008060009054906101000a900473ffffffffffffffffffffffffffffffffffffffff1673ffffffffffffffffffffffffffffffffffffffff16632ef3accc86856040518363ffffffff1660e01b81526004018080602001838152602001828103825284818151815260200191508051906020019080838360005b8381101561266857808201518184015260208101905061264d565b50505050905090810190601f1680156126955780820380516001836020036101000a031916815260200191505b509350505050602060405180830381600087803b1580156126b557600080fd5b505af11580156126c9573d6000803e3d6000fd5b505050506040513d60208110156126df57600080fd5b81019080805190602001909291905050509050823a02670de0b6b3a764000001811115612712576000801b9150506128b7565b606061271d856128d8565b90506000809054906101000a900473ffffffffffffffffffffffffffffffffffffffff1673ffffffffffffffffffffffffffffffffffffffff1663c55c1cb68360008985896040518663ffffffff1660e01b8152600401808581526020018060200180602001848152602001838103835286818151815260200191508051906020019080838360005b838110156127c15780820151818401526020810190506127a6565b50505050905090810190601f1680156127ee5780820380516001836020036101000a031916815260200191505b50838103825285818151815260200191508051906020019080838360005b8381101561282757808201518184015260208101905061280c565b50505050905090810190601f1680156128545780820380516001836020036101000a031916815260200191505b5096505050505050506020604051808303818588803b15801561287657600080fd5b505af115801561288a573d6000803e3d6000fd5b50505050506040513d60208110156128a157600080fd5b8101908080519060200190929190505050925050505b9392505050565b80600290805190602001906128d4929190612d08565b5050565b60606128e2612958565b6128ea612d88565b6128f681610400612964565b6128ff816129ae565b60008090505b83518110156129415761293484828151811061291d57fe5b6020026020010151836129bc90919063ffffffff16565b8080600101915050612905565b5061294b816129e1565b8060000151915050919050565b60405180590338823950565b600081905060006020828161297557fe5b061461298e576020818161298557fe5b06602003810190505b808360200181815250506040518084526000815281810160405250505050565b6129b98160046129ef565b50565b6129c98260028351612a10565b6129dc8183612b5090919063ffffffff16565b505050565b6129ec8160076129ef565b50565b612a0c601f60058360ff16901b1783612bfb90919063ffffffff16565b5050565b60178111612a3c57612a378160058460ff16901b60ff161784612bfb90919063ffffffff16565b612b4b565b60ff8111612a7d57612a61601860058460ff16901b1784612bfb90919063ffffffff16565b612a7781600185612c3b9092919063ffffffff16565b50612b4a565b61ffff8111612abf57612aa3601960058460ff16901b1784612bfb90919063ffffffff16565b612ab981600285612c3b9092919063ffffffff16565b50612b49565b63ffffffff8111612b0357612ae7601a60058460ff16901b1784612bfb90919063ffffffff16565b612afd81600485612c3b9092919063ffffffff16565b50612b48565b67ffffffffffffffff8111612b4757612b2f601b60058460ff16901b1784612bfb90919063ffffffff16565b612b4581600885612c3b9092919063ffffffff16565b505b5b5b5b5b505050565b612b58612d88565b82602001518360000151518351011115612b8857612b87836002612b8186602001518651612ca2565b02612cbe565b5b60008060008451905085518051602081830101945086518101825260208701935050505b60208110612bcf5781518352602083019250602082019150602081039050612bac565b60006001826020036101000a039050801983511681855116818117865250508694505050505092915050565b81602001516001836000015151011115612c2157612c20826002846020015102612cbe565b5b815180516020818301018381536001820183525050505050565b612c43612d88565b836020015184600001515183011115612c7157612c70846002612c6a876020015186612ca2565b02612cbe565b5b60006001836101000a0390508451805184818301018684198251161781528582018352505050849150509392505050565b600081831115612cb457829050612cb8565b8190505b92915050565b606082600001519050612cd18383612964565b612cdb8382612b50565b50505050565b60405180608001604052806004905b6060815260200190600190039081612cf05790505090565b828054600181600116156101000203166002900490600052602060002090601f016020900481019282601f10612d4957805160ff1916838001178555612d77565b82800160010185558215612d77579182015b82811115612d76578251825591602001919060010190612d5b565b5b509050612d849190612da2565b5090565b604051806040016040528060608152602001600081525090565b612dc491905b80821115612dc0576000816000905550600101612da8565b5090565b9056fe536f7272792c2062757420746865206d696e696d756d2062657420697320302e31206574686572536f7272792c2062757420746865206d6178696d756d206265742069732031206574686572536f7272792c206275742074686520617661696c61626c652062616c616e6365206973206c657373207468616e2074686520616d6f756e7420796f75206172652062657474696e672ea2646970667358221220fdfd094c3be43fe0da5439fd40b1edd2030930ac45caac01c7d7d89799b318fd64736f6c63430006020033",
  "source": "// SPDX-License-Identifier: MIT\npragma solidity >=0.4.22 < 0.7.0;\n\nimport \"./provable.sol\";\n\ncontract Coin is usingProvable {\n\n    uint256 constant NUM_RANDOM_BYTES_REQUESTED = 1;\n    \n    uint public ownerBalance;\n    address payable owner;\n\n    mapping(address => User) public users;\n    mapping(bytes32 => Query) public queries;\n\n    struct User {\n        uint balance;\n        bytes32 queryId;\n    }\n    \n    struct Query {\n        address payable userAddress;\n        uint headsOrTails;\n        bytes32 queryId;\n    }\n\n    \n    modifier isOwner() {\n        require(msg.sender == owner, \"You are not the owner\");\n        _;\n    }\n    \n    constructor() public {\n        owner = msg.sender;\n    }\n\n    event logNewProvableQuery(string description, bool trueOrFalse);\n    event betResult(bool trueOrFalse, string result);\n\n    function __callback(bytes32 _queryId,string memory _result) public override {\n        require(msg.sender == provable_cbAddress());\n        \n        uint256 randomNumber = (uint256(keccak256(abi.encodePacked(_result))) % 2) + 1;\n\n        if (queries[_queryId].queryId == _queryId && randomNumber == queries[_queryId].headsOrTails) {\n            playerWins(_queryId);\n            emit betResult(true, \"You win!\");\n        } else {\n            ownerWins(_queryId);\n            emit betResult(false, \"You lose!\");\n        }\n    }\n\n    function randomNumGenerator(uint coinSide) payable public {\n        uint256 QUERY_EXECUTION_DELAY = 0;\n        uint256 GAS_FOR_CALLBACK = 200000;\n\n        bytes32 _queryId = provable_newRandomDSQuery(\n            QUERY_EXECUTION_DELAY,\n            NUM_RANDOM_BYTES_REQUESTED,\n            GAS_FOR_CALLBACK\n        );\n        \n        queries[_queryId].userAddress = msg.sender;\n        queries[_queryId].queryId = _queryId;\n        queries[_queryId].headsOrTails = coinSide;\n        users[msg.sender].queryId = _queryId;\n\n        emit logNewProvableQuery(\"Bet placed, awaiting result\", true);  \n    }\n    \n    function setOwnerBalance() public payable isOwner {\n        ownerBalance += msg.value;\n    }\n    \n    function startBet(uint headsOrTails) public payable {\n        require(msg.value >= 100000000000000000 wei, \"Sorry, but the minimum bet is 0.1 ether\");\n        require(msg.value <= 1 ether, \"Sorry, but the maximum bet is 1 ether\");\n        require(msg.value <= ownerBalance, \"Sorry, but the available balance is less than the amount you are betting.\");\n\n        users[msg.sender].balance += msg.value;\n        \n        randomNumGenerator(headsOrTails);\n    }\n    \n    function playerWins(bytes32 _queryId) private returns(uint) {\n        uint pb = users[queries[_queryId].userAddress].balance * 2;\n        ownerBalance = ownerBalance - users[queries[_queryId].userAddress].balance;\n        users[queries[_queryId].userAddress].balance = 0;\n        \n        queries[_queryId].userAddress.transfer(pb);\n\n        return users[queries[_queryId].userAddress].balance;\n    }\n    \n    function ownerWins(bytes32 _queryId) private returns(uint) {\n        ownerBalance = ownerBalance + users[queries[_queryId].userAddress].balance;\n        users[queries[_queryId].userAddress].balance = 0;\n\n        return ownerBalance;\n    }\n}\n",
  "sourcePath": "/Users/john/Desktop/project1/contracts/Coin.sol",
  "compiler": {
    "name": "solc",
    "version": "0.6.2+commit.bacdbe57.Emscripten.clang"
  },
  "schemaVersion": "3.2.3",
  "updatedAt": "2020-08-27T22:21:19.219Z",
  "networkType": "ethereum",
  "devdoc": {
    "methods": {}
  },
  "userdoc": {
    "methods": {}
  }
}