{
  "contractName": "RandomOracle",
  "abi": [
    {
      "inputs": [],
      "stateMutability": "nonpayable",
      "type": "constructor"
    },
    {
      "anonymous": false,
      "inputs": [
        {
          "indexed": false,
          "internalType": "bool",
          "name": "trueOrFalse",
          "type": "bool"
        },
        {
          "indexed": false,
          "internalType": "string",
          "name": "result",
          "type": "string"
        }
      ],
      "name": "betResult",
      "type": "event"
    },
    {
      "anonymous": false,
      "inputs": [
        {
          "indexed": false,
          "internalType": "uint256",
          "name": "randomNumber",
          "type": "uint256"
        }
      ],
      "name": "generatedRandomNumber",
      "type": "event"
    },
    {
      "anonymous": false,
      "inputs": [
        {
          "indexed": false,
          "internalType": "string",
          "name": "description",
          "type": "string"
        }
      ],
      "name": "logNewProvableQuery",
      "type": "event"
    },
    {
      "inputs": [],
      "name": "ownerBalance",
      "outputs": [
        {
          "internalType": "uint256",
          "name": "",
          "type": "uint256"
        }
      ],
      "stateMutability": "view",
      "type": "function"
    },
    {
      "inputs": [
        {
          "internalType": "bytes32",
          "name": "",
          "type": "bytes32"
        }
      ],
      "name": "queries",
      "outputs": [
        {
          "internalType": "uint256",
          "name": "latestNumber",
          "type": "uint256"
        },
        {
          "internalType": "address",
          "name": "userAddress",
          "type": "address"
        },
        {
          "internalType": "bytes32",
          "name": "queryId",
          "type": "bytes32"
        }
      ],
      "stateMutability": "view",
      "type": "function"
    },
    {
      "inputs": [
        {
          "internalType": "address",
          "name": "",
          "type": "address"
        }
      ],
      "name": "users",
      "outputs": [
        {
          "internalType": "uint256",
          "name": "balance",
          "type": "uint256"
        },
        {
          "internalType": "bytes32",
          "name": "queryId",
          "type": "bytes32"
        }
      ],
      "stateMutability": "view",
      "type": "function"
    },
    {
      "inputs": [
        {
          "internalType": "bytes32",
          "name": "_queryId",
          "type": "bytes32"
        },
        {
          "internalType": "string",
          "name": "_result",
          "type": "string"
        }
      ],
      "name": "__callback",
      "outputs": [],
      "stateMutability": "nonpayable",
      "type": "function"
    },
    {
      "inputs": [
        {
          "internalType": "bytes32",
          "name": "_myid",
          "type": "bytes32"
        },
        {
          "internalType": "string",
          "name": "_result",
          "type": "string"
        },
        {
          "internalType": "bytes",
          "name": "_proof",
          "type": "bytes"
        }
      ],
      "name": "__callback",
      "outputs": [],
      "stateMutability": "nonpayable",
      "type": "function"
    },
    {
      "inputs": [],
      "name": "randomNumGenerator",
      "outputs": [],
      "stateMutability": "payable",
      "type": "function"
    },
    {
      "inputs": [],
      "name": "setOwnerBalance",
      "outputs": [],
      "stateMutability": "payable",
      "type": "function"
    },
    {
      "inputs": [],
      "name": "startBet",
      "outputs": [],
      "stateMutability": "payable",
      "type": "function"
    }
  ],
  "bytecode": "0x60806040523480156200001157600080fd5b5033600660006101000a81548173ffffffffffffffffffffffffffffffffffffffff021916908373ffffffffffffffffffffffffffffffffffffffff160217905550620000636200006960201b60201c565b62002060565b6000809050600062030d40905060006200008c83600184620001b260201b60201c565b9050336008600083815260200190815260200160002060010160006101000a81548173ffffffffffffffffffffffffffffffffffffffff021916908373ffffffffffffffffffffffffffffffffffffffff16021790555080600860008381526020019081526020016000206002018190555080600760003373ffffffffffffffffffffffffffffffffffffffff1673ffffffffffffffffffffffffffffffffffffffff168152602001908152602001600020600101819055507f94f2559b5e2b297de3db1587daf2352e872ada3dad01dab9ee3733592fa22ed360405180806020018281038252601b8152602001807f42657420706c616365642c206177616974696e6720726573756c74000000000081525060200191505060405180910390a1505050565b60008083118015620001c5575060208311155b620001cf57600080fd5b600a84029350606060016040519080825280601f01601f1916602001820160405280156200020c5781602001600182028038833980820191505090505b5090508360f81b816000815181106200022157fe5b60200101907effffffffffffffffffffffffffffffffffffffffffffffffffffffffffffff1916908160001a905350606060206040519080825280601f01601f191660200182016040528015620002875781602001600182028038833980820191505090505b509050606060206040519080825280601f01601f191660200182016040528015620002c15781602001600182028038833980820191505090505b5090506000620002d66200078560201b60201c565b905060208352424118600143034018602084015260208252806020830152606060206040519080825280601f01601f1916602001820160405280156200032b5781602001600182028038833980820191505090505b509050886020820152606060086040519080825280601f01601f1916602001820160405280156200036b5781602001600182028038833980820191505090505b50905062000386826018600884600062000abe60201b60201c565b506200039162001f6f565b60405180608001604052808781526020018881526020018681526020018481525090506000620003fe6040518060400160405280600681526020017f72616e646f6d0000000000000000000000000000000000000000000000000000815250838c62000b2060201b60201c565b9050606060086040519080825280601f01601f191660200182016040528015620004375781602001600182028038833980820191505090505b50905060208401517f0100000000000000000000000000000000000000000000000000000000000000810460278301537e01000000000000000000000000000000000000000000000000000000000000810460268301537d010000000000000000000000000000000000000000000000000000000000810460258301537c0100000000000000000000000000000000000000000000000000000000810460248301537b01000000000000000000000000000000000000000000000000000000810460238301537a010000000000000000000000000000000000000000000000000000810460228301537901000000000000000000000000000000000000000000000000008104602183015378010000000000000000000000000000000000000000000000008104602083015350620007728282856001600481106200057857fe5b60200201516002876000600481106200058d57fe5b60200201516040518082805190602001908083835b60208310620005c75780518252602082019150602081019050602083039250620005a2565b6001836020036101000a038019825116818451168082178552505050505050905001915050602060405180830381855afa1580156200060a573d6000803e3d6000fd5b5050506040513d60208110156200062057600080fd5b8101908080519060200190929190505050876002600481106200063f57fe5b60200201516040516020018085805190602001908083835b602083106200067c578051825260208201915060208101905060208303925062000657565b6001836020036101000a03801982511681845116808217855250505050505090500184805190602001908083835b60208310620006cf5780518252602082019150602081019050602083039250620006aa565b6001836020036101000a03801982511681845116808217855250505050505090500183815260200182805190602001908083835b6020831062000728578051825260208201915060208101905060208303925062000703565b6001836020036101000a0380198251168184511680821785525050505050509050019450505050506040516020818303038152906040528051906020012062000eb860201b60201c565b8199505050505050505050509392505050565b60008073ffffffffffffffffffffffffffffffffffffffff16600160009054906101000a900473ffffffffffffffffffffffffffffffffffffffff1673ffffffffffffffffffffffffffffffffffffffff161480620008165750600062000814600160009054906101000a900473ffffffffffffffffffffffffffffffffffffffff1662000ed460201b60201c565b145b1562000830576200082e600062000edf60201b60201c565b505b600160009054906101000a900473ffffffffffffffffffffffffffffffffffffffff1673ffffffffffffffffffffffffffffffffffffffff166338cc48316040518163ffffffff1660e01b8152600401602060405180830381600087803b1580156200089b57600080fd5b505af1158015620008b0573d6000803e3d6000fd5b505050506040513d6020811015620008c757600080fd5b810190808051906020019092919050505073ffffffffffffffffffffffffffffffffffffffff166000809054906101000a900473ffffffffffffffffffffffffffffffffffffffff1673ffffffffffffffffffffffffffffffffffffffff161462000a1457600160009054906101000a900473ffffffffffffffffffffffffffffffffffffffff1673ffffffffffffffffffffffffffffffffffffffff166338cc48316040518163ffffffff1660e01b8152600401602060405180830381600087803b1580156200099757600080fd5b505af1158015620009ac573d6000803e3d6000fd5b505050506040513d6020811015620009c357600080fd5b81019080805190602001909291905050506000806101000a81548173ffffffffffffffffffffffffffffffffffffffff021916908373ffffffffffffffffffffffffffffffffffffffff1602179055505b6000809054906101000a900473ffffffffffffffffffffffffffffffffffffffff1673ffffffffffffffffffffffffffffffffffffffff1663abaa5f3e6040518163ffffffff1660e01b815260040160206040518083038186803b15801562000a7c57600080fd5b505afa15801562000a91573d6000803e3d6000fd5b505050506040513d602081101562000aa857600080fd5b8101908080519060200190929190505050905090565b606060008285019050808451101562000ad657600080fd5b600086602001905060008460200190505b86886020010182101562000b11578189015180828801525060208201915060208101905062000ae7565b85935050505095945050505050565b60008073ffffffffffffffffffffffffffffffffffffffff16600160009054906101000a900473ffffffffffffffffffffffffffffffffffffffff1673ffffffffffffffffffffffffffffffffffffffff16148062000bb15750600062000baf600160009054906101000a900473ffffffffffffffffffffffffffffffffffffffff1662000ed460201b60201c565b145b1562000bcb5762000bc9600062000edf60201b60201c565b505b600160009054906101000a900473ffffffffffffffffffffffffffffffffffffffff1673ffffffffffffffffffffffffffffffffffffffff166338cc48316040518163ffffffff1660e01b8152600401602060405180830381600087803b15801562000c3657600080fd5b505af115801562000c4b573d6000803e3d6000fd5b505050506040513d602081101562000c6257600080fd5b810190808051906020019092919050505073ffffffffffffffffffffffffffffffffffffffff166000809054906101000a900473ffffffffffffffffffffffffffffffffffffffff1673ffffffffffffffffffffffffffffffffffffffff161462000daf57600160009054906101000a900473ffffffffffffffffffffffffffffffffffffffff1673ffffffffffffffffffffffffffffffffffffffff166338cc48316040518163ffffffff1660e01b8152600401602060405180830381600087803b15801562000d3257600080fd5b505af115801562000d47573d6000803e3d6000fd5b505050506040513d602081101562000d5e57600080fd5b81019080805190602001909291905050506000806101000a81548173ffffffffffffffffffffffffffffffffffffffff021916908373ffffffffffffffffffffffffffffffffffffffff1602179055505b6060600460405190808252806020026020018201604052801562000de857816020015b606081526020019060019003908162000dd25790505b5090508360006004811062000df957fe5b60200201518160008151811062000e0c57fe5b60200260200101819052508360016004811062000e2557fe5b60200201518160018151811062000e3857fe5b60200260200101819052508360026004811062000e5157fe5b60200201518160028151811062000e6457fe5b60200260200101819052508360036004811062000e7d57fe5b60200201518160038151811062000e9057fe5b602002602001018190525062000eae85828562000ef860201b60201c565b9150509392505050565b8060036000848152602001908152602001600020819055505050565b6000813b9050919050565b600062000ef16200148c60201b60201c565b9050919050565b60008073ffffffffffffffffffffffffffffffffffffffff16600160009054906101000a900473ffffffffffffffffffffffffffffffffffffffff1673ffffffffffffffffffffffffffffffffffffffff16148062000f895750600062000f87600160009054906101000a900473ffffffffffffffffffffffffffffffffffffffff1662000ed460201b60201c565b145b1562000fa35762000fa1600062000edf60201b60201c565b505b600160009054906101000a900473ffffffffffffffffffffffffffffffffffffffff1673ffffffffffffffffffffffffffffffffffffffff166338cc48316040518163ffffffff1660e01b8152600401602060405180830381600087803b1580156200100e57600080fd5b505af115801562001023573d6000803e3d6000fd5b505050506040513d60208110156200103a57600080fd5b810190808051906020019092919050505073ffffffffffffffffffffffffffffffffffffffff166000809054906101000a900473ffffffffffffffffffffffffffffffffffffffff1673ffffffffffffffffffffffffffffffffffffffff16146200118757600160009054906101000a900473ffffffffffffffffffffffffffffffffffffffff1673ffffffffffffffffffffffffffffffffffffffff166338cc48316040518163ffffffff1660e01b8152600401602060405180830381600087803b1580156200110a57600080fd5b505af11580156200111f573d6000803e3d6000fd5b505050506040513d60208110156200113657600080fd5b81019080805190602001909291905050506000806101000a81548173ffffffffffffffffffffffffffffffffffffffff021916908373ffffffffffffffffffffffffffffffffffffffff1602179055505b60008060009054906101000a900473ffffffffffffffffffffffffffffffffffffffff1673ffffffffffffffffffffffffffffffffffffffff16632ef3accc86856040518363ffffffff1660e01b81526004018080602001838152602001828103825284818151815260200191508051906020019080838360005b838110156200121f57808201518184015260208101905062001202565b50505050905090810190601f1680156200124d5780820380516001836020036101000a031916815260200191505b509350505050602060405180830381600087803b1580156200126e57600080fd5b505af115801562001283573d6000803e3d6000fd5b505050506040513d60208110156200129a57600080fd5b81019080805190602001909291905050509050823a02670de0b6b3a764000001811115620012cf576000801b91505062001485565b6060620012e28562001a5b60201b60201c565b90506000809054906101000a900473ffffffffffffffffffffffffffffffffffffffff1673ffffffffffffffffffffffffffffffffffffffff1663c55c1cb68360008985896040518663ffffffff1660e01b8152600401808581526020018060200180602001848152602001838103835286818151815260200191508051906020019080838360005b83811015620013885780820151818401526020810190506200136b565b50505050905090810190601f168015620013b65780820380516001836020036101000a031916815260200191505b50838103825285818151815260200191508051906020019080838360005b83811015620013f1578082015181840152602081019050620013d4565b50505050905090810190601f1680156200141f5780820380516001836020036101000a031916815260200191505b5096505050505050506020604051808303818588803b1580156200144257600080fd5b505af115801562001457573d6000803e3d6000fd5b50505050506040513d60208110156200146f57600080fd5b8101908080519060200190929190505050925050505b9392505050565b600080620014b4731d3b2638a7cc9f2cb3d298a3da7a90b67e5506ed62000ed460201b60201c565b11156200156057731d3b2638a7cc9f2cb3d298a3da7a90b67e5506ed600160006101000a81548173ffffffffffffffffffffffffffffffffffffffff021916908373ffffffffffffffffffffffffffffffffffffffff160217905550620015566040518060400160405280600b81526020017f6574685f6d61696e6e657400000000000000000000000000000000000000000081525062001b1660201b60201c565b6001905062001a58565b60006200158773c03a2615d5efaf5f49f60b7bb6583eaec212fdf162000ed460201b60201c565b1115620016335773c03a2615d5efaf5f49f60b7bb6583eaec212fdf1600160006101000a81548173ffffffffffffffffffffffffffffffffffffffff021916908373ffffffffffffffffffffffffffffffffffffffff160217905550620016296040518060400160405280600c81526020017f6574685f726f707374656e33000000000000000000000000000000000000000081525062001b1660201b60201c565b6001905062001a58565b60006200165a73b7a07bcf2ba2f2703b24c0691b5278999c59ac7e62000ed460201b60201c565b1115620017065773b7a07bcf2ba2f2703b24c0691b5278999c59ac7e600160006101000a81548173ffffffffffffffffffffffffffffffffffffffff021916908373ffffffffffffffffffffffffffffffffffffffff160217905550620016fc6040518060400160405280600981526020017f6574685f6b6f76616e000000000000000000000000000000000000000000000081525062001b1660201b60201c565b6001905062001a58565b60006200172d73146500cfd35b22e4a392fe0adc06de1a1368ed4862000ed460201b60201c565b1115620017d95773146500cfd35b22e4a392fe0adc06de1a1368ed48600160006101000a81548173ffffffffffffffffffffffffffffffffffffffff021916908373ffffffffffffffffffffffffffffffffffffffff160217905550620017cf6040518060400160405280600b81526020017f6574685f72696e6b65627900000000000000000000000000000000000000000081525062001b1660201b60201c565b6001905062001a58565b60006200180073a2998efd205fb9d4b4963afb70778d6354ad3a4162000ed460201b60201c565b1115620018ac5773a2998efd205fb9d4b4963afb70778d6354ad3a41600160006101000a81548173ffffffffffffffffffffffffffffffffffffffff021916908373ffffffffffffffffffffffffffffffffffffffff160217905550620018a26040518060400160405280600a81526020017f6574685f676f65726c690000000000000000000000000000000000000000000081525062001b1660201b60201c565b6001905062001a58565b6000620018d3736f485c8bf6fc43ea212e93bbf8ce046c7f1cb47562000ed460201b60201c565b11156200193957736f485c8bf6fc43ea212e93bbf8ce046c7f1cb475600160006101000a81548173ffffffffffffffffffffffffffffffffffffffff021916908373ffffffffffffffffffffffffffffffffffffffff1602179055506001905062001a58565b6000620019607320e12a1f859b3feae5fb2a0a32c18f5a65555bbf62000ed460201b60201c565b1115620019c6577320e12a1f859b3feae5fb2a0a32c18f5a65555bbf600160006101000a81548173ffffffffffffffffffffffffffffffffffffffff021916908373ffffffffffffffffffffffffffffffffffffffff1602179055506001905062001a58565b6000620019ed7351efaf4c8b3c9afbd5ab9f4bbc82784ab6ef8faa62000ed460201b60201c565b111562001a53577351efaf4c8b3c9afbd5ab9f4bbc82784ab6ef8faa600160006101000a81548173ffffffffffffffffffffffffffffffffffffffff021916908373ffffffffffffffffffffffffffffffffffffffff1602179055506001905062001a58565b600090505b90565b606062001a6d62001b3260201b60201c565b62001a7762001f97565b62001a908161040062001b3e60201b620024361760201c565b62001aa68162001b8b60201b620024801760201c565b60008090505b835181101562001af25762001ae484828151811062001ac757fe5b60200260200101518362001ba160201b6200248e1790919060201c565b808060010191505062001aac565b5062001b098162001bd560201b620024b31760201c565b8060000151915050919050565b806002908051906020019062001b2e92919062001fb1565b5050565b60405180590338823950565b600081905060006020828162001b5057fe5b061462001b6b576020818162001b6257fe5b06602003810190505b808360200181815250506040518084526000815281810160405250505050565b62001b9e81600462001beb60201b60201c565b50565b62001bb6826002835162001c1360201b60201c565b62001bd0818362001d9b60201b620026221790919060201c565b505050565b62001be881600762001beb60201b60201c565b50565b62001c0f601f60058360ff16901b178362001e5b60201b620026cd1790919060201c565b5050565b6017811162001c485762001c428160058460ff16901b60ff16178462001e5b60201b620026cd1790919060201c565b62001d96565b60ff811162001c995762001c75601860058460ff16901b178462001e5b60201b620026cd1790919060201c565b62001c928160018562001ea460201b6200270d179092919060201c565b5062001d95565b61ffff811162001ceb5762001cc7601960058460ff16901b178462001e5b60201b620026cd1790919060201c565b62001ce48160028562001ea460201b6200270d179092919060201c565b5062001d94565b63ffffffff811162001d3f5762001d1b601a60058460ff16901b178462001e5b60201b620026cd1790919060201c565b62001d388160048562001ea460201b6200270d179092919060201c565b5062001d93565b67ffffffffffffffff811162001d925762001d73601b60058460ff16901b178462001e5b60201b620026cd1790919060201c565b62001d908160088562001ea460201b6200270d179092919060201c565b505b5b5b5b5b505050565b62001da562001f97565b8260200151836000015151835101111562001de65762001de583600262001dd88660200151865162001f1e60201b60201c565b0262001f3c60201b60201c565b5b60008060008451905085518051602081830101945086518101825260208701935050505b6020811062001e2f578151835260208301925060208201915060208103905062001e0a565b60006001826020036101000a039050801983511681855116818117865250508694505050505092915050565b8160200151600183600001515101111562001e8a5762001e8982600284602001510262001f3c60201b60201c565b5b815180516020818301018381536001820183525050505050565b62001eae62001f97565b83602001518460000151518301111562001eed5762001eec84600262001edf87602001518662001f1e60201b60201c565b0262001f3c60201b60201c565b5b60006001836101000a0390508451805184818301018684198251161781528582018352505050849150509392505050565b60008183111562001f325782905062001f36565b8190505b92915050565b60608260000151905062001f57838362001b3e60201b60201c565b62001f69838262001d9b60201b60201c565b50505050565b60405180608001604052806004905b606081526020019060019003908162001f7e5790505090565b604051806040016040528060608152602001600081525090565b828054600181600116156101000203166002900490600052602060002090601f016020900481019282601f1062001ff457805160ff191683800117855562002025565b8280016001018555821562002025579182015b828111156200202457825182559160200191906001019062002007565b5b50905062002034919062002038565b5090565b6200205d91905b80821115620020595760008160009055506001016200203f565b5090565b90565b61291980620020706000396000f3fe60806040526004361061007b5760003560e01c8063a87430ba1161004e578063a87430ba1461034e578063bedcf003146103ba578063efafd28f146103e5578063fa6776db146103ef5761007b565b806321dfb6001461008057806327dc297e1461010957806338bbfa50146101db5780634ab5ab5b14610344575b600080fd5b34801561008c57600080fd5b506100b9600480360360208110156100a357600080fd5b81019080803590602001909291905050506103f9565b604051808481526020018373ffffffffffffffffffffffffffffffffffffffff1673ffffffffffffffffffffffffffffffffffffffff168152602001828152602001935050505060405180910390f35b34801561011557600080fd5b506101d96004803603604081101561012c57600080fd5b81019080803590602001909291908035906020019064010000000081111561015357600080fd5b82018360208201111561016557600080fd5b8035906020019184600183028401116401000000008311171561018757600080fd5b91908080601f016020809104026020016040519081016040528093929190818152602001838380828437600081840152601f19601f820116905080830192505050505050509192919290505050610443565b005b3480156101e757600080fd5b50610342600480360360608110156101fe57600080fd5b81019080803590602001909291908035906020019064010000000081111561022557600080fd5b82018360208201111561023757600080fd5b8035906020019184600183028401116401000000008311171561025957600080fd5b91908080601f016020809104026020016040519081016040528093929190818152602001838380828437600081840152601f19601f820116905080830192505050505050509192919290803590602001906401000000008111156102bc57600080fd5b8201836020820111156102ce57600080fd5b803590602001918460018302840111640100000000831117156102f057600080fd5b91908080601f016020809104026020016040519081016040528093929190818152602001838380828437600081840152601f19601f82011690508083019250505050505050919291929050505061057b565b005b61034c61059e565b005b34801561035a57600080fd5b5061039d6004803603602081101561037157600080fd5b81019080803573ffffffffffffffffffffffffffffffffffffffff1690602001909291905050506106df565b604051808381526020018281526020019250505060405180910390f35b3480156103c657600080fd5b506103cf610703565b6040518082815260200191505060405180910390f35b6103ed610709565b005b6103f76107de565b005b60086020528060005260406000206000915090508060000154908060010160009054906101000a900473ffffffffffffffffffffffffffffffffffffffff16908060020154905083565b61044b6108fc565b73ffffffffffffffffffffffffffffffffffffffff163373ffffffffffffffffffffffffffffffffffffffff161461048257600080fd5b60006002826040516020018082805190602001908083835b602083106104bd578051825260208201915060208101905060208303925061049a565b6001836020036101000a0380198251168184511680821785525050505050509050019150506040516020818303038152906040528051906020012060001c8161050257fe5b0690508260086000858152602001908152602001600020600201541415610576578060086000858152602001908152602001600020600001819055507fc13d60fe9dffdb6908d2d446cd18134373a51db0738ee04f296eeb9128121cbc816040518082815260200191505060405180910390a15b505050565b6000801b600360008060001b815260200190815260200160002081905550505050565b6000809050600062030d40905060006105b983600184610c1b565b9050336008600083815260200190815260200160002060010160006101000a81548173ffffffffffffffffffffffffffffffffffffffff021916908373ffffffffffffffffffffffffffffffffffffffff16021790555080600860008381526020019081526020016000206002018190555080600760003373ffffffffffffffffffffffffffffffffffffffff1673ffffffffffffffffffffffffffffffffffffffff168152602001908152602001600020600101819055507f94f2559b5e2b297de3db1587daf2352e872ada3dad01dab9ee3733592fa22ed360405180806020018281038252601b8152602001807f42657420706c616365642c206177616974696e6720726573756c74000000000081525060200191505060405180910390a1505050565b60076020528060005260406000206000915090508060000154908060010154905082565b60055481565b600660009054906101000a900473ffffffffffffffffffffffffffffffffffffffff1673ffffffffffffffffffffffffffffffffffffffff163373ffffffffffffffffffffffffffffffffffffffff16146107cc576040517f08c379a00000000000000000000000000000000000000000000000000000000081526004018080602001828103825260158152602001807f596f7520617265206e6f7420746865206f776e6572000000000000000000000081525060200191505060405180910390fd5b34600560008282540192505081905550565b670de0b6b3a764000080341015610840576040517f08c379a00000000000000000000000000000000000000000000000000000000081526004018080602001828103825260258152602001806128bf6025913960400191505060405180910390fd5b6729a2241af62c00003411156108a1576040517f08c379a000000000000000000000000000000000000000000000000000000000815260040180806020018281038252602581526020018061289a6025913960400191505060405180910390fd5b34600760003373ffffffffffffffffffffffffffffffffffffffff1673ffffffffffffffffffffffffffffffffffffffff168152602001908152602001600020600001600082825401925050819055506108f961059e565b50565b60008073ffffffffffffffffffffffffffffffffffffffff16600160009054906101000a900473ffffffffffffffffffffffffffffffffffffffff1673ffffffffffffffffffffffffffffffffffffffff16148061098457506000610982600160009054906101000a900473ffffffffffffffffffffffffffffffffffffffff166111b6565b145b156109955761099360006111c1565b505b600160009054906101000a900473ffffffffffffffffffffffffffffffffffffffff1673ffffffffffffffffffffffffffffffffffffffff166338cc48316040518163ffffffff1660e01b8152600401602060405180830381600087803b1580156109ff57600080fd5b505af1158015610a13573d6000803e3d6000fd5b505050506040513d6020811015610a2957600080fd5b810190808051906020019092919050505073ffffffffffffffffffffffffffffffffffffffff166000809054906101000a900473ffffffffffffffffffffffffffffffffffffffff1673ffffffffffffffffffffffffffffffffffffffff1614610b7257600160009054906101000a900473ffffffffffffffffffffffffffffffffffffffff1673ffffffffffffffffffffffffffffffffffffffff166338cc48316040518163ffffffff1660e01b8152600401602060405180830381600087803b158015610af757600080fd5b505af1158015610b0b573d6000803e3d6000fd5b505050506040513d6020811015610b2157600080fd5b81019080805190602001909291905050506000806101000a81548173ffffffffffffffffffffffffffffffffffffffff021916908373ffffffffffffffffffffffffffffffffffffffff1602179055505b6000809054906101000a900473ffffffffffffffffffffffffffffffffffffffff1673ffffffffffffffffffffffffffffffffffffffff1663c281d19e6040518163ffffffff1660e01b8152600401602060405180830381600087803b158015610bdb57600080fd5b505af1158015610bef573d6000803e3d6000fd5b505050506040513d6020811015610c0557600080fd5b8101908080519060200190929190505050905090565b60008083118015610c2d575060208311155b610c3657600080fd5b600a84029350606060016040519080825280601f01601f191660200182016040528015610c725781602001600182028038833980820191505090505b5090508360f81b81600081518110610c8657fe5b60200101907effffffffffffffffffffffffffffffffffffffffffffffffffffffffffffff1916908160001a905350606060206040519080825280601f01601f191660200182016040528015610ceb5781602001600182028038833980820191505090505b509050606060206040519080825280601f01601f191660200182016040528015610d245781602001600182028038833980820191505090505b5090506000610d316111d2565b905060208352424118600143034018602084015260208252806020830152606060206040519080825280601f01601f191660200182016040528015610d855781602001600182028038833980820191505090505b509050886020820152606060086040519080825280601f01601f191660200182016040528015610dc45781602001600182028038833980820191505090505b509050610dd782601860088460006114ef565b50610de06127b3565b60405180608001604052808781526020018881526020018681526020018481525090506000610e456040518060400160405280600681526020017f72616e646f6d0000000000000000000000000000000000000000000000000000815250838c61154e565b9050606060086040519080825280601f01601f191660200182016040528015610e7d5781602001600182028038833980820191505090505b50905060208401517f0100000000000000000000000000000000000000000000000000000000000000810460278301537e01000000000000000000000000000000000000000000000000000000000000810460268301537d010000000000000000000000000000000000000000000000000000000000810460258301537c0100000000000000000000000000000000000000000000000000000000810460248301537b01000000000000000000000000000000000000000000000000000000810460238301537a0100000000000000000000000000000000000000000000000000008104602283015379010000000000000000000000000000000000000000000000000081046021830153780100000000000000000000000000000000000000000000000081046020830153506111a3828285600160048110610fbc57fe5b6020020151600287600060048110610fd057fe5b60200201516040518082805190602001908083835b602083106110085780518252602082019150602081019050602083039250610fe5565b6001836020036101000a038019825116818451168082178552505050505050905001915050602060405180830381855afa15801561104a573d6000803e3d6000fd5b5050506040513d602081101561105f57600080fd5b81019080805190602001909291905050508760026004811061107d57fe5b60200201516040516020018085805190602001908083835b602083106110b85780518252602082019150602081019050602083039250611095565b6001836020036101000a03801982511681845116808217855250505050505090500184805190602001908083835b6020831061110957805182526020820191506020810190506020830392506110e6565b6001836020036101000a03801982511681845116808217855250505050505090500183815260200182805190602001908083835b60208310611160578051825260208201915060208101905060208303925061113d565b6001836020036101000a038019825116818451168082178552505050505050905001945050505050604051602081830303815290604052805190602001206118bb565b8199505050505050505050509392505050565b6000813b9050919050565b60006111cb6118d7565b9050919050565b60008073ffffffffffffffffffffffffffffffffffffffff16600160009054906101000a900473ffffffffffffffffffffffffffffffffffffffff1673ffffffffffffffffffffffffffffffffffffffff16148061125a57506000611258600160009054906101000a900473ffffffffffffffffffffffffffffffffffffffff166111b6565b145b1561126b5761126960006111c1565b505b600160009054906101000a900473ffffffffffffffffffffffffffffffffffffffff1673ffffffffffffffffffffffffffffffffffffffff166338cc48316040518163ffffffff1660e01b8152600401602060405180830381600087803b1580156112d557600080fd5b505af11580156112e9573d6000803e3d6000fd5b505050506040513d60208110156112ff57600080fd5b810190808051906020019092919050505073ffffffffffffffffffffffffffffffffffffffff166000809054906101000a900473ffffffffffffffffffffffffffffffffffffffff1673ffffffffffffffffffffffffffffffffffffffff161461144857600160009054906101000a900473ffffffffffffffffffffffffffffffffffffffff1673ffffffffffffffffffffffffffffffffffffffff166338cc48316040518163ffffffff1660e01b8152600401602060405180830381600087803b1580156113cd57600080fd5b505af11580156113e1573d6000803e3d6000fd5b505050506040513d60208110156113f757600080fd5b81019080805190602001909291905050506000806101000a81548173ffffffffffffffffffffffffffffffffffffffff021916908373ffffffffffffffffffffffffffffffffffffffff1602179055505b6000809054906101000a900473ffffffffffffffffffffffffffffffffffffffff1673ffffffffffffffffffffffffffffffffffffffff1663abaa5f3e6040518163ffffffff1660e01b815260040160206040518083038186803b1580156114af57600080fd5b505afa1580156114c3573d6000803e3d6000fd5b505050506040513d60208110156114d957600080fd5b8101908080519060200190929190505050905090565b606060008285019050808451101561150657600080fd5b600086602001905060008460200190505b86886020010182101561153f5781890151808288015250602082019150602081019050611517565b85935050505095945050505050565b60008073ffffffffffffffffffffffffffffffffffffffff16600160009054906101000a900473ffffffffffffffffffffffffffffffffffffffff1673ffffffffffffffffffffffffffffffffffffffff1614806115d6575060006115d4600160009054906101000a900473ffffffffffffffffffffffffffffffffffffffff166111b6565b145b156115e7576115e560006111c1565b505b600160009054906101000a900473ffffffffffffffffffffffffffffffffffffffff1673ffffffffffffffffffffffffffffffffffffffff166338cc48316040518163ffffffff1660e01b8152600401602060405180830381600087803b15801561165157600080fd5b505af1158015611665573d6000803e3d6000fd5b505050506040513d602081101561167b57600080fd5b810190808051906020019092919050505073ffffffffffffffffffffffffffffffffffffffff166000809054906101000a900473ffffffffffffffffffffffffffffffffffffffff1673ffffffffffffffffffffffffffffffffffffffff16146117c457600160009054906101000a900473ffffffffffffffffffffffffffffffffffffffff1673ffffffffffffffffffffffffffffffffffffffff166338cc48316040518163ffffffff1660e01b8152600401602060405180830381600087803b15801561174957600080fd5b505af115801561175d573d6000803e3d6000fd5b505050506040513d602081101561177357600080fd5b81019080805190602001909291905050506000806101000a81548173ffffffffffffffffffffffffffffffffffffffff021916908373ffffffffffffffffffffffffffffffffffffffff1602179055505b606060046040519080825280602002602001820160405280156117fb57816020015b60608152602001906001900390816117e65790505b5090508360006004811061180b57fe5b60200201518160008151811061181d57fe5b60200260200101819052508360016004811061183557fe5b60200201518160018151811061184757fe5b60200260200101819052508360026004811061185f57fe5b60200201518160028151811061187157fe5b60200260200101819052508360036004811061188957fe5b60200201518160038151811061189b57fe5b60200260200101819052506118b1858285611e2e565b9150509392505050565b8060036000848152602001908152602001600020819055505050565b6000806118f7731d3b2638a7cc9f2cb3d298a3da7a90b67e5506ed6111b6565b111561199957731d3b2638a7cc9f2cb3d298a3da7a90b67e5506ed600160006101000a81548173ffffffffffffffffffffffffffffffffffffffff021916908373ffffffffffffffffffffffffffffffffffffffff1602179055506119906040518060400160405280600b81526020017f6574685f6d61696e6e6574000000000000000000000000000000000000000000815250612390565b60019050611e2b565b60006119b873c03a2615d5efaf5f49f60b7bb6583eaec212fdf16111b6565b1115611a5a5773c03a2615d5efaf5f49f60b7bb6583eaec212fdf1600160006101000a81548173ffffffffffffffffffffffffffffffffffffffff021916908373ffffffffffffffffffffffffffffffffffffffff160217905550611a516040518060400160405280600c81526020017f6574685f726f707374656e330000000000000000000000000000000000000000815250612390565b60019050611e2b565b6000611a7973b7a07bcf2ba2f2703b24c0691b5278999c59ac7e6111b6565b1115611b1b5773b7a07bcf2ba2f2703b24c0691b5278999c59ac7e600160006101000a81548173ffffffffffffffffffffffffffffffffffffffff021916908373ffffffffffffffffffffffffffffffffffffffff160217905550611b126040518060400160405280600981526020017f6574685f6b6f76616e0000000000000000000000000000000000000000000000815250612390565b60019050611e2b565b6000611b3a73146500cfd35b22e4a392fe0adc06de1a1368ed486111b6565b1115611bdc5773146500cfd35b22e4a392fe0adc06de1a1368ed48600160006101000a81548173ffffffffffffffffffffffffffffffffffffffff021916908373ffffffffffffffffffffffffffffffffffffffff160217905550611bd36040518060400160405280600b81526020017f6574685f72696e6b656279000000000000000000000000000000000000000000815250612390565b60019050611e2b565b6000611bfb73a2998efd205fb9d4b4963afb70778d6354ad3a416111b6565b1115611c9d5773a2998efd205fb9d4b4963afb70778d6354ad3a41600160006101000a81548173ffffffffffffffffffffffffffffffffffffffff021916908373ffffffffffffffffffffffffffffffffffffffff160217905550611c946040518060400160405280600a81526020017f6574685f676f65726c6900000000000000000000000000000000000000000000815250612390565b60019050611e2b565b6000611cbc736f485c8bf6fc43ea212e93bbf8ce046c7f1cb4756111b6565b1115611d2057736f485c8bf6fc43ea212e93bbf8ce046c7f1cb475600160006101000a81548173ffffffffffffffffffffffffffffffffffffffff021916908373ffffffffffffffffffffffffffffffffffffffff16021790555060019050611e2b565b6000611d3f7320e12a1f859b3feae5fb2a0a32c18f5a65555bbf6111b6565b1115611da3577320e12a1f859b3feae5fb2a0a32c18f5a65555bbf600160006101000a81548173ffffffffffffffffffffffffffffffffffffffff021916908373ffffffffffffffffffffffffffffffffffffffff16021790555060019050611e2b565b6000611dc27351efaf4c8b3c9afbd5ab9f4bbc82784ab6ef8faa6111b6565b1115611e26577351efaf4c8b3c9afbd5ab9f4bbc82784ab6ef8faa600160006101000a81548173ffffffffffffffffffffffffffffffffffffffff021916908373ffffffffffffffffffffffffffffffffffffffff16021790555060019050611e2b565b600090505b90565b60008073ffffffffffffffffffffffffffffffffffffffff16600160009054906101000a900473ffffffffffffffffffffffffffffffffffffffff1673ffffffffffffffffffffffffffffffffffffffff161480611eb657506000611eb4600160009054906101000a900473ffffffffffffffffffffffffffffffffffffffff166111b6565b145b15611ec757611ec560006111c1565b505b600160009054906101000a900473ffffffffffffffffffffffffffffffffffffffff1673ffffffffffffffffffffffffffffffffffffffff166338cc48316040518163ffffffff1660e01b8152600401602060405180830381600087803b158015611f3157600080fd5b505af1158015611f45573d6000803e3d6000fd5b505050506040513d6020811015611f5b57600080fd5b810190808051906020019092919050505073ffffffffffffffffffffffffffffffffffffffff166000809054906101000a900473ffffffffffffffffffffffffffffffffffffffff1673ffffffffffffffffffffffffffffffffffffffff16146120a457600160009054906101000a900473ffffffffffffffffffffffffffffffffffffffff1673ffffffffffffffffffffffffffffffffffffffff166338cc48316040518163ffffffff1660e01b8152600401602060405180830381600087803b15801561202957600080fd5b505af115801561203d573d6000803e3d6000fd5b505050506040513d602081101561205357600080fd5b81019080805190602001909291905050506000806101000a81548173ffffffffffffffffffffffffffffffffffffffff021916908373ffffffffffffffffffffffffffffffffffffffff1602179055505b60008060009054906101000a900473ffffffffffffffffffffffffffffffffffffffff1673ffffffffffffffffffffffffffffffffffffffff16632ef3accc86856040518363ffffffff1660e01b81526004018080602001838152602001828103825284818151815260200191508051906020019080838360005b8381101561213a57808201518184015260208101905061211f565b50505050905090810190601f1680156121675780820380516001836020036101000a031916815260200191505b509350505050602060405180830381600087803b15801561218757600080fd5b505af115801561219b573d6000803e3d6000fd5b505050506040513d60208110156121b157600080fd5b81019080805190602001909291905050509050823a02670de0b6b3a7640000018111156121e4576000801b915050612389565b60606121ef856123aa565b90506000809054906101000a900473ffffffffffffffffffffffffffffffffffffffff1673ffffffffffffffffffffffffffffffffffffffff1663c55c1cb68360008985896040518663ffffffff1660e01b8152600401808581526020018060200180602001848152602001838103835286818151815260200191508051906020019080838360005b83811015612293578082015181840152602081019050612278565b50505050905090810190601f1680156122c05780820380516001836020036101000a031916815260200191505b50838103825285818151815260200191508051906020019080838360005b838110156122f95780820151818401526020810190506122de565b50505050905090810190601f1680156123265780820380516001836020036101000a031916815260200191505b5096505050505050506020604051808303818588803b15801561234857600080fd5b505af115801561235c573d6000803e3d6000fd5b50505050506040513d602081101561237357600080fd5b8101908080519060200190929190505050925050505b9392505050565b80600290805190602001906123a69291906127da565b5050565b60606123b461242a565b6123bc61285a565b6123c881610400612436565b6123d181612480565b60008090505b8351811015612413576124068482815181106123ef57fe5b60200260200101518361248e90919063ffffffff16565b80806001019150506123d7565b5061241d816124b3565b8060000151915050919050565b60405180590338823950565b600081905060006020828161244757fe5b0614612460576020818161245757fe5b06602003810190505b808360200181815250506040518084526000815281810160405250505050565b61248b8160046124c1565b50565b61249b82600283516124e2565b6124ae818361262290919063ffffffff16565b505050565b6124be8160076124c1565b50565b6124de601f60058360ff16901b17836126cd90919063ffffffff16565b5050565b6017811161250e576125098160058460ff16901b60ff1617846126cd90919063ffffffff16565b61261d565b60ff811161254f57612533601860058460ff16901b17846126cd90919063ffffffff16565b6125498160018561270d9092919063ffffffff16565b5061261c565b61ffff811161259157612575601960058460ff16901b17846126cd90919063ffffffff16565b61258b8160028561270d9092919063ffffffff16565b5061261b565b63ffffffff81116125d5576125b9601a60058460ff16901b17846126cd90919063ffffffff16565b6125cf8160048561270d9092919063ffffffff16565b5061261a565b67ffffffffffffffff811161261957612601601b60058460ff16901b17846126cd90919063ffffffff16565b6126178160088561270d9092919063ffffffff16565b505b5b5b5b5b505050565b61262a61285a565b8260200151836000015151835101111561265a5761265983600261265386602001518651612774565b02612790565b5b60008060008451905085518051602081830101945086518101825260208701935050505b602081106126a1578151835260208301925060208201915060208103905061267e565b60006001826020036101000a039050801983511681855116818117865250508694505050505092915050565b816020015160018360000151510111156126f3576126f2826002846020015102612790565b5b815180516020818301018381536001820183525050505050565b61271561285a565b8360200151846000015151830111156127435761274284600261273c876020015186612774565b02612790565b5b60006001836101000a0390508451805184818301018684198251161781528582018352505050849150509392505050565b6000818311156127865782905061278a565b8190505b92915050565b6060826000015190506127a38383612436565b6127ad8382612622565b50505050565b60405180608001604052806004905b60608152602001906001900390816127c25790505090565b828054600181600116156101000203166002900490600052602060002090601f016020900481019282601f1061281b57805160ff1916838001178555612849565b82800160010185558215612849579182015b8281111561284857825182559160200191906001019061282d565b5b5090506128569190612874565b5090565b604051806040016040528060608152602001600081525090565b61289691905b8082111561289257600081600090555060010161287a565b5090565b9056fe536f7272792c2062757420746865206d6178696d756d206265742069732033206574686572536f7272792c2062757420746865206d696e696d756d206265742069732031206574686572a26469706673582212208730f231e80e5502cbf85d00dd9c8bad039ecd8c3bc022082c48981e0a353bf764736f6c63430006020033",
  "source": "// SPDX-License-Identifier: MIT\npragma solidity >=0.4.22 < 0.7.0;\n\n// import \"github.com/oraclize/ethereum-api/provableAPI.sol\";\nimport \"./Provable.sol\";\n\ncontract RandomOracle is usingProvable {\n\n    uint256 constant NUM_RANDOM_BYTES_REQUESTED = 1;\n    \n    uint public ownerBalance;\n    address payable owner;\n\n    mapping(address => User) public users;\n    mapping(bytes32 => Query) public queries;\n\n    struct User {\n        uint balance;\n        bytes32 queryId;\n    }\n    \n    struct Query {\n        uint256 latestNumber;\n        address userAddress;\n        bytes32 queryId;\n    }\n    \n    modifier minimumBet(uint deposit) {\n        require(msg.value >= deposit, \"Sorry, but the minimum bet is 1 ether\");\n        _;\n    }\n    \n    modifier isOwner() {\n        require(msg.sender == owner, \"You are not the owner\");\n        _;\n    }\n    \n    constructor() public {\n        owner = msg.sender;\n        randomNumGenerator();\n    }\n\n    event logNewProvableQuery(string description);\n    event generatedRandomNumber(uint256 randomNumber);\n    event betResult(bool trueOrFalse, string result);\n\n    function __callback(bytes32 _queryId,string memory _result) public override {\n        require(msg.sender == provable_cbAddress());\n        \n        uint256 randomNumber = uint256(keccak256(abi.encodePacked(_result))) % 2;\n        \n        // If the queries id is the same as the callback id set the randomNumber.\n        if (queries[_queryId].queryId == _queryId) {\n            queries[_queryId].latestNumber = randomNumber;\n            \n            // payWinner();\n            \n            emit generatedRandomNumber(randomNumber);\n        }\n    }\n\n    function randomNumGenerator() payable public {\n        uint256 QUERY_EXECUTION_DELAY = 0;\n        uint256 GAS_FOR_CALLBACK = 200000;\n\n        bytes32 _queryId = provable_newRandomDSQuery(\n            QUERY_EXECUTION_DELAY,\n            NUM_RANDOM_BYTES_REQUESTED,\n            GAS_FOR_CALLBACK\n        );\n        \n        //Set the sender address to the queries object.\n        queries[_queryId].userAddress = msg.sender;\n        \n        //Set the query id to the queries object.\n        queries[_queryId].queryId = _queryId;\n        \n        //Set the query id to the users object.\n        users[msg.sender].queryId = _queryId;\n\n        emit logNewProvableQuery(\"Bet placed, awaiting result\");\n    }\n    \n    function setOwnerBalance() public payable isOwner {\n        ownerBalance += msg.value;\n    }\n    \n    function startBet() public payable minimumBet(1 ether) {\n        require(msg.value <= 3 ether, \"Sorry, but the maximum bet is 3 ether\");\n        users[msg.sender].balance += msg.value;\n        \n        randomNumGenerator();\n    }\n    \n    function playerWins() private returns(uint) {\n        uint pb = users[msg.sender].balance * 2;\n        ownerBalance = ownerBalance - users[msg.sender].balance;\n        users[msg.sender].balance = 0;\n        msg.sender.transfer(pb);\n        emit betResult(true, \"You win!\");\n\n        return users[msg.sender].balance;\n    }\n    \n    function ownerWins() private returns(uint) {\n        ownerBalance = ownerBalance + users[msg.sender].balance;\n        users[msg.sender].balance = 0;\n        emit betResult(false, \"You lose... Try again!\");\n\n        return ownerBalance;\n    }\n    \n    function payWinner() private returns(uint) {\n        if(queries[users[msg.sender].queryId].latestNumber == 1) {\n            playerWins();\n        } else {\n            ownerWins();\n        }\n    }\n}\n",
  "sourcePath": "/Users/john/Desktop/project1/contracts/Coin.sol",
  "compiler": {
    "name": "solc",
    "version": "0.6.2+commit.bacdbe57.Emscripten.clang"
  },
  "schemaVersion": "3.2.3",
  "updatedAt": "2020-08-22T17:58:26.869Z",
  "devdoc": {
    "methods": {}
  },
  "userdoc": {
    "methods": {}
  }
}